{
  "contractName": "func",
  "abi": [
    {
      "inputs": [],
      "payable": false,
      "stateMutability": "nonpayable",
      "type": "constructor"
    },
    {
      "anonymous": false,
      "inputs": [
        {
          "indexed": false,
          "name": "a",
          "type": "address"
        }
      ],
      "name": "changed",
      "type": "event"
    },
    {
      "constant": true,
      "inputs": [],
      "name": "getword",
      "outputs": [
        {
          "name": "",
          "type": "string"
        }
      ],
      "payable": false,
      "stateMutability": "view",
      "type": "function"
    },
    {
      "constant": false,
      "inputs": [
        {
          "name": "w",
          "type": "string"
        }
      ],
      "name": "setword",
      "outputs": [],
      "payable": false,
      "stateMutability": "nonpayable",
      "type": "function"
    }
  ],
  "bytecode": "0x608060405234801561001057600080fd5b506040518060400160405280600481526020017f62697264000000000000000000000000000000000000000000000000000000008152506000908051906020019061005c9291906100ab565b50602a60018190555033600260006101000a81548173ffffffffffffffffffffffffffffffffffffffff021916908373ffffffffffffffffffffffffffffffffffffffff160217905550610150565b828054600181600116156101000203166002900490600052602060002090601f016020900481019282601f106100ec57805160ff191683800117855561011a565b8280016001018555821561011a579182015b828111156101195782518255916020019190600101906100fe565b5b509050610127919061012b565b5090565b61014d91905b80821115610149576000816000905550600101610131565b5090565b90565b6103c38061015f6000396000f3fe608060405234801561001057600080fd5b50600436106100365760003560e01c80630dcdd2851461003b57806323b9943c146100f6575b600080fd5b6100f46004803603602081101561005157600080fd5b810190808035906020019064010000000081111561006e57600080fd5b82018360208201111561008057600080fd5b803590602001918460018302840111640100000000831117156100a257600080fd5b91908080601f016020809104026020016040519081016040528093929190818152602001838380828437600081840152601f19601f820116905080830192505050505050509192919290505050610179565b005b6100fe610250565b6040518080602001828103825283818151815260200191508051906020019080838360005b8381101561013e578082015181840152602081019050610123565b50505050905090810190601f16801561016b5780820380516001836020036101000a031916815260200191505b509250505060405180910390f35b600260009054906101000a900473ffffffffffffffffffffffffffffffffffffffff1673ffffffffffffffffffffffffffffffffffffffff163373ffffffffffffffffffffffffffffffffffffffff16146101d357600080fd5b80600090805190602001906101e99291906102f2565b507ff96d0f9fa4d342496c45ea9dafb173aad6b61bad612c6e43defe34348f1ce3f133604051808273ffffffffffffffffffffffffffffffffffffffff1673ffffffffffffffffffffffffffffffffffffffff16815260200191505060405180910390a150565b606060008054600181600116156101000203166002900480601f0160208091040260200160405190810160405280929190818152602001828054600181600116156101000203166002900480156102e85780601f106102bd576101008083540402835291602001916102e8565b820191906000526020600020905b8154815290600101906020018083116102cb57829003601f168201915b5050505050905090565b828054600181600116156101000203166002900490600052602060002090601f016020900481019282601f1061033357805160ff1916838001178555610361565b82800160010185558215610361579182015b82811115610360578251825591602001919060010190610345565b5b50905061036e9190610372565b5090565b61039491905b80821115610390576000816000905550600101610378565b5090565b9056fea165627a7a72305820f568625c90e17909c3dc5cb6ea5031d7a5694065c945ef92a0daa721807de1f50029",
  "source": "pragma solidity >=0.4.0 <0.6.0;\r\ncontract func{\r\n    string word;\r\n    uint number;\r\n    address owner;\r\n    constructor()public\r\n    {\r\n        word=\"bird\";\r\n        number=42;\r\n        owner=msg.sender;\r\n    }\r\n    event changed(address a);\r\n    modifier onlyowner()\r\n    {\r\n        if(msg.sender!=owner)\r\n        {\r\n            revert();\r\n        }\r\n        _;\r\n    }\r\n    function getword() public view returns (string memory)\r\n    {\r\n        return word;\r\n    }\r\n    function setword(string memory w) public onlyowner{\r\n        word=w;\r\n        emit changed(msg.sender);\r\n    } \r\n}\r\n",
  "sourcePath": "C:/Users/alifc/OneDrive/Desktop/Project1/contracts/Election.sol",
  "compiler": {
    "name": "solc",
    "version": "0.5.8+commit.23d335f2.Emscripten.clang"
  },
  "schemaVersion": "3.0.16",
  "updatedAt": "2019-10-23T20:47:32.940Z",
  "devdoc": {
    "methods": {}
  },
  "userdoc": {
    "methods": {}
  }
}